:020000040800F2
:100000000809002079020008E56D0008091F0008B2
:10001000E16D0008BF180008A37700080000000089
:10002000000000000000000000000000F16F000868
:10003000711A000800000000796E000805710008C0
:10004000930200089302000893020008930200083C
:10005000930200089302000893020008930200082C
:10006000930200089302000893020008930200081C
:10007000930200089302000893020008930200080C
:1000800093020008930200089302000893020008FC
:1000900093020008930200089302000893020008EC
:1000A00093020008930200089302000893020008DC
:1000B0009302000893020008697100089302000887
:1000C00093020008930200089302000893020008BC
:1000D000930200087D73000805740008930200086D
:1000E000930200089302000893020008930200089C
:1000F000930200089302000893020008930200088C
:10010000930200089302000893020008930200087B
:10011000930200089302000893020008930200086B
:10012000930200089302000893020008930200085B
:1001300000F002F800F090F80AA090E8000C824469
:100140008344AAF10107DA4501D100F085F8AFF246
:10015000090EBAE80F0013F0010F18BFFB1A43F0A5
:100160000103184788940000A8940000103A24BFA7
:1001700078C878C1FAD8520724BF30C830C144BF0C
:1001800004680C607047000000230024002500264E
:10019000103A28BF78C1FBD8520728BF30C148BFEA
:1001A0000B6070476E2900F02683702900F03581BE
:1001B000662907F0CD85652907F0CA85672907F00C
:1001C000C7856129AFF3008003681B0A28BF41F08F
:1001D0008001692900F0A680642900F0A3807529B8
:1001E00000F0A0806F2900F00984782900F00181D7
:1001F000E92900F0A383E42900F0A083F52900F0A9
:100200009D83EF2900F00684F82900F0008103683F
:10021000DB0928BF41F08001632900F06186732962
:1002200000F06686E32900F07186F32900F07686F7
:10023000002070471FB500F0C7FE04000020002119
:1002400007F070FD401C60600020002107F054FDA5
:10025000E0601FBD10B510BD00F088FE1146FFF72D
:10026000E9FF07F03BFB00F061FF03B4FFF7F2FF8B
:1002700003BC07F0B3FA000009488047094800476B
:10028000FEE7FEE7FEE7FEE7FEE7FEE7FEE7FEE746
:10029000FEE7FEE704480549054A064B70470000A3
:1002A0000971000831010008080300200809002036
:1002B0000805002008050020704700001CB50C460A
:1002C000064B7B4469460090204600F0AEFA044697
:1002D0000020694600F0BCFA20461CBD8B050000DA
:1002E0000FB4044910B503AA029800F0B7FA10BC85
:1002F0005DF814FB180000200FB41CB5084B06AACB
:100300007B4469460090059800F08FFA044600206F
:10031000694600F09DFA20461CBC5DF814FB000005
:100320004D0500002DE9F0410646002410687529AE
:10033000314616A510D000F0CAF9002802DA404272
:1003400013A507E031688A0701D512A502E0490725
:1003500004D511A5012401E000F0C2F900210A2210
:1003600006F1240709E0B0FBF2FCB0FBF2F302FB5C
:100370001C00303078541846491C0028F3D123461D
:100380002A463046BDE8F04100F0DCB9000000002C
:100390002D0000002B00000020000000F0B40D46EE
:1003A0000188090502D5214C7C4402E01F4C7C44A5
:1003B0000E34002100F1240608E002F00F071209B4
:1003C000E75D42EA03721B097754491C52EA0307AE
:1003D000F3D102780023120704D5702D06D009B19D
:1003E000022311342246F0BC00F0ACB901231034D2
:1003F000F8E770B504460D462146106800F070F924
:10040000024629462046BDE870400023C6E7D21DBB
:1004100022F00703D3E90023C0E70368126843F022
:10042000200303600823C3610023B7E7689100003D
:100430002DE9F05F894604464FF0000ADFF874B1F9
:10044000FB44C0F820A02046E1688847002874D00B
:10045000252806D0D4E901219047206A401C20625B
:10046000F1E700265F462046E168884720280546D8
:1004700007DB312D05D2781910F8200C08B106439E
:10048000F1E7B00701D526F00406C4F81CA0002748
:10049000C4F818A02A2D09D0284607F098F938B3D7
:1004A00004EB8708303DC8F8185019E059F8041BD0
:1004B000204604EB87029161E1688847012F0546D9
:1004C00018D1E069002820DA26F020061DE0D8F8CF
:1004D000180000EB800005EB40003038C8F8180029
:1004E0002046E1688847054607F071F90028EED1FB
:1004F000012F0AD02E2D08D12046E16888477F1CA5
:100500000546022F46F02006C4DBA069002803DA66
:10051000404246F00106A061F00701D026F0100627
:100520006C2D0BD0682D09D04C2D39D06A2D35D0CB
:10053000742D35D07A2D33D016E038E0E1682F469F
:1005400020468847B842054609D16C2F26D04FF483
:100550008060E168064320468847054604E06C2F2A
:100560001AD04FF4807006430DB3A5F1410019284D
:1005700002D8203546F400664A46294620462660C1
:100580004E46FFF70FFE80B101280BD0F61D26F076
:10059000070000F1080956E74020E4E78020D8E78B
:1005A0000020D6E706F104094DE7284652E7206A05
:1005B000BDE8F09FF890000010B5431C02E010F871
:1005C000011B71B18107FAD14FF0013202C88C1AB8
:1005D0008C4314EAC211F9D0C01A0A0603D0C01E17
:1005E00010BDC01A10BD0A0401D0801E10BD090242
:1005F000FCD0401E10BD00004FF0013C50F8042B11
:1006000051F8043B9A4221D1A2EB0C03934313EA25
:10061000CC1317D150F8042B51F8043B9A4215D152
:10062000A2EB0C03934313EACC130BD150F8042B29
:1006300051F8043B9A4209D1A2EB0C03934313EA0D
:10064000CC13DBD04FF00000704700BFD01A01BAC6
:10065000B1FA81F101F0180122FA01F0CB40C1F1A9
:100660002001DBB2C0B2C01A2CFA01F3D11A9143B7
:1006700011EAC311E6D17047704770477047704761
:1006800070B5044685690068C10601D5302600E0D2
:100690002026C00707D070BDD4E90121304690471D
:1006A000206A401C20626D1EF6D570BD70B50446F0
:1006B00085690078C00707D170BDD4E901212020E9
:1006C0009047206A401C20626D1EF6D570BD0968F7
:1006D0004A0501D540B27047C905FCD500B2704744
:1006E00009684A0501D5C0B27047C905FCD580B27A
:1006F000704770B50C460546012A05D0287880065B
:1007000000D5EA69002302E0012305E05B1C934267
:1007100002D2E05C0028F9D1A869E618C01AA861E5
:10072000286A184428622846FFF7AAFF04E0D5E9A2
:10073000012114F8010B9047B442F8D32846FFF783
:10074000B5FF70BD2DE9F0470D4699469246044627
:1007500000F124080168880604D5E06921F0100141
:10076000216000E00120A84201DD471B00E00027D6
:10077000A1697A1902EB0900081AA0612078C00665
:1007800002D42046FFF77CFF002608E0D4E90121CF
:100790001AF806009047206A401C761C20624E45DD
:1007A000F4DB2078C0060AD52046FFF769FF06E093
:1007B000D4E9012130209047206A401C2062381E75
:1007C000A7F10107F4DC07E0D4E9012118F80500DE
:1007D0009047206A401C2062281EA5F10105F3DC29
:1007E0002046FFF763FF2078000602D50220BDE80F
:1007F000F0870120FBE711680268006A530501D504
:1008000008700AE0D30501D5088006E0130603D579
:10081000C217C1E9000200E0086001207047000033
:1008200001694A1C02610878704700B58FB0CDE9B4
:1008300001310021059105497944CDE903101146A4
:100840006846FFF7F5FD0FB000BD0000E5FFFFFFB4
:100850000A6802F8010B0A6070470000074B70B588
:100860000D467B44FFF7E1FF0446284600F05AFBA3
:1008700010B14FF0FF3070BD204670BD5B700000BE
:100880002DE9FF5F15468A460446DFF8AC80F84440
:100890000027D8E900103E46CDE9001010E03AF8F4
:1008A00016106A4602A800F041FB411C07D02178CF
:1008B000890603D5E269391891420DD80744761CA0
:1008C0002078800602D5E069B84205DDAE42E6DB5D
:1008D0003AF816000028E2D1A069C01BA0612046AA
:1008E000FFF7CEFED8E90010CDE90010002017E098
:1008F0003AF818106A4602A800F018FBB0F1FF3F62
:1009000081460BD000250DF1080B05E0D4E901214B
:100910001BF8050090476D1C4D45F7D308F1010009
:10092000B0428046E4DB206A384420622046FFF76C
:10093000BDFEBDE8FF9F0000BE8C00002DE9F04128
:100940008046D21D22F007020025D2E90002F529D7
:1009500015A614D0011E72F1000106DA0023D0EBB7
:10096000030063EB020211A608E0D8F800108B0721
:1009700001D50FA602E0490701D50EA601251146B3
:10098000002408F1240704E000F04EF830323A5514
:10099000641C50EA0102F7D12B46324621464046FC
:1009A000BDE8F041FFF7CEBE000000002D000000C2
:1009B0002B0000002000000030B4002100F12404CE
:1009C00008E002F00705D208303542EA4372DB083E
:1009D0006554491C52EA0305F3D10468002310A2B0
:1009E000250708D504F020040C4304D0C469012372
:1009F0000CA2641EC46130BCFFF7A4BE10B504464F
:100A000021461068FFF76CFE02462046BDE8104004
:100A10000023D1E7D21D22F00701D1E90023CBE763
:100A2000000000003000000030B5B0F10A024FEACB
:100A3000900E71F100034EEA817EB0EB0E0061EB87
:100A400091014FEA101E4EEA017E10EB0E0041EBC1
:100A500011114FEA102E4EEA016E10EB0E0041EB21
:100A600011214FEA104E4EEA014E10EB0E0041EB01
:100A70001141401841F100014FEAD00040EA4170B5
:100A80004FEAD10110EB80054FEA810444EA9074EB
:100A900044EB01046D1944EB0404521BA3414FF0D5
:100AA000000348BF0A3200D530BD401C41F10001AF
:100AB00030BD70472DE9FF4F0C461E464FF0FF3703
:100AC0008BB0D2E90001DDF860800A908A46C1F35C
:100AD0000A5505B93D46002108464FF00000BAF11D
:100AE000000F00F4400005DA00EB80004FF44001F5
:100AF00001EA50004FEA9059B9F1010F00DDB94603
:100B00000A9850EA4A000ED044F61050A5F2FF357C
:100B100045432F14B8F1000F1ED07542291E1EDD6B
:100B2000C9F100021CE0B8F1010F4FF0000001D044
:100B3000302103E0F24305E02154401CB042FBDBCE
:100B400030460022002121540B99C1F80880C1E9E8
:100B500000200FB0BDE8F08FBD1B6D1CDEE74A46DC
:100B600000DA694206A800F073FA06AB93E80700C2
:100B700003AB83E8070050460A9900F0E5FA8DE8D8
:100B80000700A0F500501F3800900398002D09DDE4
:100B900042F21F014A46084403A90390684600F048
:100BA00044FD08E0A0F500504A461F3803A9039011
:100BB000684600F04EFD8DE807000004000C03D0ED
:100BC0004FF0FF30410800E01046B8F1000F03D0AD
:100BD0000022009215461EE0751E05D4FFF724FF83
:100BE000303262556D1EF9D5B3460122084302D05A
:100BF00000227F1C04E02078302801D100227F1ED3
:100C0000002A099786D01DE0112D07DAFFF70CFFA7
:100C1000303262556D1C50EA0102F5D1084302D012
:100C20000098C8B10EE00021681E05E0235C625CFC
:100C300063542254401E491C8142F7DBAB46A81B7B
:100C4000401E0990002004F80B000B98099AC0F888
:100C50000880C0E9002B7CE711264FF0000859E717
:100C60002DE9F04F88460446D21D22F0070191B0CD
:100C7000D1E90001CDE90A0106F095FD02460B9885
:100C8000C00F01D02D2007E02068810701D52B205F
:100C900002E0202101EAC000032A099001D0072ABE
:100CA00005DB03464146204600F092F90BE120782F
:100CB000800601D5E06900E00620B8F1650F8146A5
:100CC00006D0B8F1660F18D0B8F1670F70D131E0D7
:100CD0000020B9F1110F009001DB112301E009F1AF
:100CE00001030AAA01A90CA8FFF7E4FEDDE90C70D4
:100CF000002609F10105834647E001204B4600909C
:100D00004FF000470AAA01A90CA8FFF7D3FEDDE9BE
:100D10000DB00C995D46002610B909F101000D18BF
:100D2000B9EB050003D4C0F1FF3609F10105A5EBCD
:100D300009002BE0B9F1010F01DA4FF001090020A1
:100D4000B9F1110F0090484601DD112300E0034680
:100D50000AAA01A90CA8FFF7ADFEDDE90C704D460B
:100D600000268346207800070AD4AB4500DA5D46AA
:100D700001A8012D04DD411911F8011C302907D00B
:100D80004F4502DA17F1040F04DA012082460FE022
:100D90006D1EEEE7002F02DCED1B3E4403E0781CE5
:100DA000A84200DD7D1CB81B00F1010A4FF000478E
:100DB0002078000703D4AA4501DB4FF0FF3A002159
:100DC000B7F1004F0DF143088DF8431024D00220F5
:100DD0002B23002F01DA7F422D230A21021EA0F1CE
:100DE000010000DC5FB197FBF1FC97FBF1F201FB26
:100DF0001C7C17460CF1300C08F801CDEEE7A8F189
:100E0000010003702188090501D5452100E0652115
:100E1000A0F1010800F8011C09980FA9A1EB08072F
:100E2000FF1D00B10120411901EBEA70A1693844AE
:100E3000081A401EA0612078C00602D42046FFF7A1
:100E40001FFC099828B1D4E901219047206A401C71
:100E500020622078C00622D52046FFF711FC1EE054
:100E6000002E04DBB34502DD01A8805D00E03020E8
:100E7000D4E901219047206A401C2062761CAAF127
:100E800001005FEA000A0AD100F09EF8C06801681C
:100E9000405CD4E901219047206A401C2062281E52
:100EA000A5F10105DCDC07E0D4E9012118F8010B0C
:100EB0009047206A401C2062381EA7F10107F3DC2E
:100EC0002046FFF7F3FB032011B043E610B543695A
:100ED00013B1AFF3008001E0FFF70BFC012010BD60
:100EE000127800F124010A7000224A700122EDE715
:100EF00011684FF0FF32E9E710B5436913B1AFF362
:100F0000008001E0FFF7BCFC012010BD128800F159
:100F1000240182840022C2840122EDE711684FF08F
:100F2000FF32E9E7007B00F08000704770B516469D
:100F30000C46054600F040F8036893F801010128CB
:100F400006D0FF2C0FD8185D68B101202C7070BD41
:100F5000D3F807013246214603F20713034428461B
:100F6000BDE8704018474FF0FF3070BD754600F087
:100F7000E7F8AE4605006946534620F0070085466F
:100F800018B020B5FFF786F9BDE820404FF0000605
:100F90004FF000074FF000084FF0000B21F0070161
:100FA000AC46ACE8C009ACE8C009ACE8C009ACE8A4
:100FB000C0098D467047000010B500F005F8001D0F
:100FC00010BD00BF616D000000487047C8020020DE
:100FD0002DE9F0411F46044603260168072A01F463
:100FE000006004DB08B116A505E016A503E008B112
:100FF00015A500E015A521F010002060A069C01E15
:10100000A0610FB1401EA0612046FFF739FB4FB130
:10101000D4E9012138469047206A401C2062C01C58
:10102000206206E0206AFAE7D4E9012115F8010BF5
:101030009047761EF8D22046FFF738FBBDE8F081D6
:101040004E414E006E616E00494E4600696E66006C
:101050002DE9F047814616468AB0334878440DC8DA
:101060008DE80D0030487844801C03AC0DC884E83E
:101070000D0041F69B300844372190FBF1F290FBC4
:10108000F1F5A5F1800501FB12041B3C02D5644279
:10109000012000E00020DFF890A080460027FA44FD
:1010A000AAF1BE0A0DE0E00709D03246684607EB18
:1010B00047010AEB810100F0CCFA8DE807006410CB
:1010C0007F1C002CEFD1184F7F44AC3F18E0E8079D
:1010D00014D007EB04100DF1180A90E80E008AE80E
:1010E0000E00C068F04201D198190890324606A956
:1010F00003A800F0AEFA03AB83E807006D10641C90
:10110000002DE4D132466946B8F1000F03A802D0A1
:1011100000F08BFA01E000F09CFAC9E90001C9F87F
:1011200008200AB0BDE8F0877485000010B50446B9
:10113000AFF300802046BDE81040FFF796B80000EE
:1011400000487047A80200205FEA400C08BF91F0F9
:10115000000F4FEA8C234FEAC12243EA51514FEA74
:101160001C5018BF00F5F0404FEA300018BF41F0A6
:1011700000415FEA6C5C00F02980BCF1FF3F08BFD2
:1011800040F080407047130C06BF12044FF0100C63
:101190004FF0000C130E04BF12020CF1080C130FD9
:1011A00004BF12010CF1040C930F04BF92000CF168
:1011B000020CD30F04BF52000CF1010C11464FF08A
:1011C0000002A0F11F00A0EB0C00704711F0004FCF
:1011D00008BF704731F000413FF4D5AF0B0C06BF9C
:1011E00009044FF0100C4FF0000C0B0E04BF090265
:1011F0000CF1080C0B0F04BF09010CF1040C8B0F50
:1012000004BF89000CF1020CCB0F04BF49000CF1A4
:10121000010CCCF12003A0EB0C0022FA03F302FA3C
:101220000CF241EA030100F10100704720F07F4C0D
:1012300080EA030023F07F47ACEB070303F57C5300
:1012400000F0004003F1FF032DE980494FEA154B00
:1012500009B44FEA144325EA0B4E24EA03480FF27F
:10126000042606EB132749083E785FEA320203FBA7
:101270000667C7F5000707FB06F64FEA54374FEA43
:10128000D64606F1020607FB066CCCF1005C4FEA7D
:101290001C472CEA074C07FB06F40CFB06F504EB95
:1012A00015464FEA961634BF00204FF000404FEA33
:1012B000D13706FB07FC4FEA1C4C0CFB0BF7D21B8B
:1012C00003FB0CF761EB07010CFB0EF7B0EB0740DB
:1012D00072EB17420CFB08F734BFA2EB0742B2EBEC
:1012E000074261EB17414FEA0C444FEA910706FBB6
:1012F00007FC4FEA1C4C0CFB0BF7B0EBC74072EB42
:10130000573203FB0CF734BFA2EBC742B2EBC74224
:1013100061EB57310CFB0EF7B0EBC70072EB577265
:101320000CFB08F734BFA2EBC702B2EBC70261EBBC
:101330005771039F4FEA816141EA921104EBCC049B
:101340004FEAD1374FEA826206FB07FC42EA90126D
:101350004FEA80604FEA1C4C0CFB0BF7D21B03FBDF
:101360000CF761EB07010CFB0EF7B0EB074072EBDB
:1013700017420CFB08F734BFA2EB0742B2EB07425F
:1013800061EB17414FEA8C554FEA910704EB9C241F
:1013900006FB07FC4FEA1C4C0CFB0BF7B0EBC740FD
:1013A00072EB573203FB0CF734BFA2EBC742B2EB30
:1013B000C74261EB57310CFB0EF7B0EBC70072EB85
:1013C00057720CFB08F734BFA2EBC702B2EBC7029F
:1013D00061EB577115EB4C254FEA816141EA92119F
:1013E0004FEA82624FEAD13742EA901206FB07FCCD
:1013F00044F100044FEA80604FEA1C4C0CFB0BF7F1
:10140000D21B03FB0CF761EB07010CFB0EF7B0EBF3
:10141000074072EB17420CFB08F734BFA2EB074200
:10142000B2EB074261EB174115EB1C154FEA813116
:1014300041EA92414FEA823242EA90424FEA8030DA
:101440004FEA0C7644F1000448EA03434EEA0B48A5
:101450004FF0000EB2EB080C71EB030724BF62469D
:1014600039464EEB0E0E4FF0000B00185241494129
:101470004BEB0B0BB2EB080C71EB03077BF1000B92
:1014800024BF624639464EEB0E0E4FF0000B00189B
:10149000524149414BEB0B0BB2EB080C71EB0307CC
:1014A0007BF1000B24BF624639464EEB0E0E51EA2B
:1014B000020718BF46F0010616EB0E7655F1000242
:1014C00054F1000103D5BDE88901BDE80088BDE8FD
:1014D0008901BDE80048B619524141EB0101A3F171
:1014E0000103704780807F7E7D7C7B7A7978777678
:1014F00076757473727171706F6E6E6D6C6C6B6AF1
:101500006A6968686766666564646363626161608E
:10151000605F5F5E5E5D5D5C5C5B5B5A5A5959580B
:101520005857575656555555545453535252525175
:10153000515050504F4F4F4E4E4D4D4D4C4C4C4BCB
:101540004B4B4A4A4A494949484848474747474612
:10155000464645454544444444434343434242424E
:1015600042414141002B26D4770021D01CB54FEADF
:10157000370703B44FF010004FF010014FF0000098
:101580000FBCBDE810400BF1010BBBF1010F08BF10
:101590005FEA170722BF12F1010211F101014FF0BA
:1015A000004143F1000300F0004043EA00007047AF
:1015B000F9D35708DAE746EA064613F1400F4FEA37
:1015C00016461FDD13F1200FDFBF16430A46002128
:1015D00020335B42C8D0C3F1200746EA064602FA30
:1015E00007F74FEA164646EA0706C3F1200722FA34
:1015F00003F201FA07F721FA03F14FF0000342EA80
:101600000702B1E746EA020646EA06464FEA1646F0
:1016100046EA0106BCBF46EA0646360C4FF0000318
:101620004FF000024FF000019EE72DE9C0489346BD
:1016300030B491E8380007C831EA400C48BF34EABA
:10164000430C03D5FFF7F2FDFFF78CFFF0BCBDE8BC
:1016500000882DE9C048934630B491E8380007C8A7
:1016600010F0804F08BF13F0804F03D100F005F851
:10167000FFF778FFF0BCBDE8008820F07F4780EAE4
:10168000030023F07F4C07EB0C03A3F57C5300F021
:101690000040A3F1FE0392F0000F00F0B38095F03C
:1016A000000F00F077802DE901494FEA11404FEA21
:1016B000144621EA004800FB06FC24EA064708FB22
:1016C00006F607FB08F800FB07F718EB06484CEB9B
:1016D000164C4FEA124B18EB07484FEA15464CEBF5
:1016E000174022EA0B4E0BFB06FC25EA06470EFBD1
:1016F00006F607FB0EFE0BFB07F71EEB064E4CEB48
:10170000164C4FF000061EEB074E4CEB174B18EB38
:101710000B0840F1000018EB0E0B58EB000840F1ED
:1017200000008F1A4FF000013CBFC943661B14BF75
:10173000B5EB040C00213CBFC943F61B4FEA17442C
:101740004EEA8E0E27EA04454FEA1C4704FB076267
:101750002CEA074C05FB07F70CFB05F604FB0CFC19
:1017600016EB074642EB174216EB0C4642EB1C42C7
:101770001BEB060658EB0202414146EA9E0601D5E4
:10178000BDE80189B619524141EB0101A3F1010302
:10179000BDE801894FEA14454FEA114724EA05469E
:1017A00021EA074C05FB07F406FB07F70CFB06F1E3
:1017B00005FB0CFC11EB074144EB17444FEA1247C1
:1017C00011EB0C4144EB1C4422EA074C05FB07F2E9
:1017D00006FB07F70CFB06F605FB0CFC16EB0746B1
:1017E00042EB174216EB0C4642EB1C456A1854F1CB
:1017F000000148BF7047B619524141EB0101A3F106
:101800000103704795F0000F37D04FEA11424FEABD
:10181000144721EA024624EA074C02FB07F106FBC3
:1018200007F70CFB06F402FB0CFC14EB074441EB3E
:1018300017414FEA154714EB0C4441EB1C4125EAD4
:10184000074C02FB07F506FB07F70CFB06F602FB4D
:101850000CFC16EB074645EB174516EB0C4645EB23
:101860001C42121951F1000148BF7047B61952418C
:1018700041EB0101A3F1010370474FEA14454FEA20
:10188000114724EA054621EA074C05FB07F106FB50
:1018900007F70CFB06F24FF0000605FB0CFC12EB01
:1018A000074241EB174112EB0C4251EB1C4148BF80
:1018B0007047921841EB0101A3F10103704700BF8B
:1018C000FEE721B1026842F00102026004E0026812
:1018D0004FF6FE731A4002607047000001684FF631
:1018E000FE72114001600021016041608160C160B1
:1018F0004B49884208D14A490839496841F00F01EB
:10190000474A083A51608AE045491431884208D173
:1019100043490839496841F0F001414A083A5160A9
:101920007DE03F492831884208D13D49083949685E
:1019300041F470613A4A083A516070E038493C31EC
:10194000884208D136490839496841F47041344A1F
:10195000083A516063E032495031884208D1304939
:101960000839496841F470212D4A083A516056E01F
:101970002B496431884208D129490839496841F422
:101980007001274A083A516049E025497831884278
:1019900008D123490839496841F07061204A083A62
:1019A00051603CE01F49884206D1011F096841F09F
:1019B0000F01021F116032E01A491431884208D128
:1019C0001849091F096841F0F001164A121F1160F9
:1019D00025E014492831884208D11249091F0968B5
:1019E00041F470610F4A121F116018E00D493C313B
:1019F000884208D10B49091F096841F47041094A1E
:101A0000121F11600BE007495031884207D1054988
:101A1000091F096841F47021024A121F11607047C2
:101A200008000240080402400146486880B270473E
:101A300010B50022026847F6F0739A430C6A8B686F
:101A400023430C6923434C6923438C692343CC69AA
:101A500023434C6A23438C6A23431A430260CB68B6
:101A600043600B6883604B68C36010BD4160704782
:101A700070472DE9F0410246002500260020002392
:101A80000024002791F803C00CF00F0591F803C063
:101A90000CF0100CBCF1000F03D091F802C04CEA1E
:101AA000050591F800C0BCF1000F31D0146800208A
:101AB0002BE04FF0010C0CFA00F3B1F800C00CEA77
:101AC00003069E4220D183004FF00F0C0CFA03F75F
:101AD000BC4305FA03FC4CEA040491F803C0BCF1D2
:101AE000280F06D14FF0010C0CFA00FCC2F814C00C
:101AF0000AE091F803C0BCF1480F05D14FF0010C8A
:101B00000CFA00FCC2F810C0401C0828D1D31460A5
:101B1000B1F800C0BCF1FF0F34DD546800202EE0A6
:101B200000F1080C4FF0010808FA0CF3B1F800C0FE
:101B30000CEA03069E4221D183004FF00F0C0CFAF1
:101B400003F7BC4305FA03FC4CEA040491F803C014
:101B5000BCF1280F05D100F1080C08FA0CF8C2F806
:101B6000148091F803C0BCF1480F07D100F1080CB4
:101B70004FF0010808FA0CF8C2F81080401C082841
:101B8000CED35460BDE8F081F0B50A4600230024AE
:101B90000021002500F00046B6F1004F02D11D4E95
:101BA000F16901E01B4E7168C0F3034583B200F494
:101BB0004016B6F5401F08D121F07061154E7668C9
:101BC00026F07066134F7E6012E000F48016B6F5C2
:101BD000801F06D1032606FA05F4A14341F0706187
:101BE00006E0460D360103FA06F6B14341F0706196
:101BF00022B1460D360103FA06F6314300F00046E5
:101C0000B6F1004F02D1034EF16101E0014E716067
:101C1000F0BD0000000001400146886880B27047B6
:101C20000246002093680B400BB1012000E0002029
:101C300070474161704701617047C16070470000A3
:101C400070B50F2630E001201C4908600A2005F01D
:101C5000EBFD1BA005F0DCFF00250AE00A2005F0E3
:101C6000E3FD1A48008800F4004000B103E0681C5E
:101C7000C5B2142DF2DB00BF0020104908601348E4
:101C8000008800F4004078B11048047800200F4923
:101C900008800D2C08D10E4800782B2804D10C4860
:101CA00080793038C4B204E0301EA6F10101CEB212
:101CB000C9D100BF06B9FF24204670BD9001224261
:101CC00041542B524F4C453F0D0A0000320000207A
:101CD000D0010020F8B50A2601250121142005F0C5
:101CE000FDF81020ADF8000048208DF80300032017
:101CF0008DF8020069462C48FFF7BBFE1020ADF8B6
:101D000000008DF8030003208DF802006946274883
:101D1000FFF7AFFE10212548FFF78DFF4FF4165057
:101D200005F0A2FB40F2DC5005F07EFD32E0012020
:101D30001F4908600A2005F077FD1EA005F068FF26
:101D400000201E49C1F8900100240AE01C480088C8
:101D500000F4004000B106E0052005F065FD601CC0
:101D6000C4B20A2CF2DB00BF1548008800F4004022
:101D700080B113480578002011490880042D09D14D
:101D8000104800784F2805D10E4840784B2801D1E3
:101D9000002504E0301EA6F10101CEB2C7D100BF7C
:101DA00006B901252846F8BD000801400010014091
:101DB0009001224241540D0A00000000000022421E
:101DC00032000020D00100201CB5FFF739FF0128A8
:101DD0000AD10BA010210B46C822CDE900108C219E
:101DE0001E2004F02FFF09E008A010210B46C82296
:101DF000CDE900108C211E2004F024FF1CBD000042
:101E0000524F4C453A4D617374657200524F4C45C8
:101E10003A536C61766520002DE9F04105460F27A5
:101E20002FE001201C4908600A2005F0FDFC29462E
:101E30001AA005F0EDFE00201A49C1F89001002615
:101E40000AE01948008800F4004000B106E00520CF
:101E500005F0EAFC701CC6B2142EF2DB00BF12487B
:101E6000008800F4004060B10F48047800200E495B
:101E70000880042C05D10D4800784F2801D100249A
:101E800004E0381EA7F10101CFB2CAD100BF07B9E3
:101E9000FF242046BDE8F0819001224225730D0AFF
:101EA000000000000000224232000020D00100208B
:101EB0001CB50C48006850B10BA010210B467822CD
:101EC000CDE900108C21104604F0BCFE09E00AA008
:101ED00010210B467822CDE900108C21104604F029
:101EE000B1FE1CBD100121425354413A436F6E6E46
:101EF00065637465642000005354413A4469736318
:101F00006F6E6E656374000000BFFEE708B50121C7
:101F1000142004F0E3FF01211148FFF735FE4FF4D0
:101F20000040ADF8000048208DF8030069460D48D8
:101F3000FFF79FFD2020ADF8000048208DF803003A
:101F400069460948FFF795FD0120ADF800002820FB
:101F50008DF8030069460348FFF78BFD08BD0000BC
:101F600000023000000801400010014010B5044696
:101F700014B10120244908702348007868B3202157
:101F80002248FFF74DFE58B14FF400412048FFF7BB
:101F900047FE28B101211E48FFF742FE01281CD14F
:101FA0000A2005F041FC002017490870202117483D
:101FB000FFF736FE08B9012010BD4FF40041144868
:101FC000FFF72EFE08B90220F6E701211048FFF7BF
:101FD00027FE012815D10320EEE720210B48FFF74B
:101FE0001FFE01280DD1C1030948FFF719FE012882
:101FF00007D101210648FFF713FE10B9012002495D
:1020000008700020D8E700003400002000100140D4
:102010000008014070B50446002624480588408821
:1020200045432248808846F60401884216D11F485D
:102030008079012812D100201C4988712A2048810A
:102040002B2088810021084604F0BAFB01201749A3
:1020500088712B2048812A20888103E000210846CE
:1020600004F0AEFB04F066FE00261BE04FF4807126
:102070000F48FFF7E0FD4FF400710D48FFF7D9FD61
:1020800021460C48FFF7D9FD80210948FFF7D1FD13
:1020900080210748FFF7CFFD4FF400710448FFF798
:1020A000CAFD761CAE42E1D370BD0000980200204C
:1020B00000100140000C014010B50446002C60D116
:1020C00066498871F02008804FF4A0704880084667
:1020D000808849F2413188420BD06048808846F6BA
:1020E0000401884205D05D48808845F2103188425D
:1020F0001AD12C20594908812A2048812B20888117
:102100000846808846F60401884205D053488088F6
:1021100045F21031884206D14FF4A0704F49088033
:102120004FF4F070488095E04C48808848F689115B
:10213000884207D12220494908814E2048814F20FA
:10214000888187E04548808845F21051884210D147
:102150004FF43050414908814FF4285048814FF4E2
:102160002C5088814FF4F07008804FF448704880FC
:1021700070E022203949088120204881212088816F
:1021800068E00120354988714FF4A0700880F02084
:1021900048800846808849F24131884205D02F485E
:1021A000808845F21031884207D12C202B490881C4
:1021B0002A2048812B20888139E02848808846F6EB
:1021C0000401884207D12C20244908812B20488112
:1021D0002A2088812BE02148808848F6891188428E
:1021E00007D122201D4908814F2048814E20888137
:1021F0001DE01A48808845F21051884210D14FF4F2
:102200003050164908814FF4285048814FF42C5023
:1022100088814FF4487008804FF4F070488006E0E1
:1022200022200E49088121204881202088810B48E6
:10223000808846F60401884205D00848808845F227
:102240001031884206D14FF4F070044908804FF4F1
:10225000A0704880002003F0BFFF10BD980200204E
:1022600070B504460D461646ED48808849F2413166
:10227000884205D0EA48808845F21031884275D1FD
:10228000E749488904F034FD4FF48071E548FFF7D1
:10229000D2FC4FF40071E348FFF7CBFC2112E24877
:1022A000FFF7CBFC8021DF48FFF7C3FC8021DD482E
:1022B000FFF7C1FC4FF40071DA48FFF7BCFC4FF4A4
:1022C0008071D848FFF7B7FC4FF40071D548FFF78D
:1022D000B0FCE1B2D448FFF7B0FC8021D148FFF751
:1022E000A8FC8021CF48FFF7A6FC4FF40071CD4831
:1022F000FFF7A1FCCA49888904F0FAFC4FF4807109
:10230000C848FFF798FC4FF40071C648FFF791FCEE
:102310002912C548FFF791FC8021C248FFF789FCCC
:102320008021C048FFF787FC4FF40071BD48FFF7DC
:1023300082FC4FF48071BB48FFF77DFC4FF40071C5
:10234000B848FFF776FCE9B2B748FFF776FC802182
:10235000B448FFF76EFC8021B248FFF76CFC4FF4E5
:102360000071B048FFF767FC21E1FFE7AC488088C7
:1023700045F2105188427DD1A949488904F0B8FC42
:102380004FF48071A748FFF756FC4FF40071A54841
:10239000FFF74FFC2112A448FFF74FFC8021A14812
:1023A000FFF747FC80219F48FFF745FC4FF4007181
:1023B0009C48FFF740FC9A494989491C88B204F0BF
:1023C00097FC4FF480719748FFF735FC4FF400718C
:1023D0009448FFF72EFCE1B29348FFF72EFC8021D2
:1023E0009048FFF726FC80218E48FFF724FC4FF42D
:1023F00000718C48FFF71FFC8949888904F078FC3C
:102400004FF480718748FFF716FC4FF40071854840
:10241000FFF70FFC29128448FFF70FFC8021814849
:10242000FFF707FC80217F48FFF705FC4FF40071A0
:102430007C48FFF700FC7A498989491C88B204F07E
:1024400057FC4FF480717748FFF7F5FB4FF40071AC
:102450007448FFF7EEFBE9B27348FFF7EEFB80210B
:102460007048FFF7E6FB80216E48FFF7E4FB4FF46E
:10247000007100E003E06B48FFF7DDFB97E0684880
:10248000808846F6040188427ED16548807901281B
:1024900004D163480088401E001B84B2604948890B
:1024A00004F026FC4FF480715E48FFF7C4FB4FF444
:1024B00000715C48FFF7BDFB21125B48FFF7BDFBD5
:1024C00080215848FFF7B5FB80215648FFF7B3FB42
:1024D0004FF400715348FFF7AEFB4FF48071514841
:1024E000FFF7A9FB4FF400714E48FFF7A2FBE1B2E2
:1024F0004D48FFF7A2FB80214A48FFF79AFB802155
:102500004848FFF798FB4FF400714648FFF793FBEC
:102510004349888904F0ECFB4FF480714148FFF790
:102520008AFB4FF400713F48FFF783FB29123E48B6
:10253000FFF783FB80213B48FFF77BFB8021394875
:10254000FFF779FB4FF400713648FFF774FB4FF447
:1025500080713448FFF76FFB4FF400713148FFF78B
:1025600068FBE9B23048FFF768FB80212D48FFF790
:1025700060FB80212B48FFF75EFB4FF40071294878
:10258000FFF759FB13E0FFE725488079012804D1C4
:1025900023480088401E001B84B2214948892146F7
:1025A00004F0D0FB1E498889294604F0CBFB4FF488
:1025B00080711C48FFF73DFB4FF400711948FFF78D
:1025C00038FB174801891848FFF737FB8021154869
:1025D000FFF72FFB80211348FFF72DFB4FF400710D
:1025E0001048FFF728FB4FF480710E48FFF723FBDC
:1025F0004FF400710B48FFF71CFB31460A48FFF708
:102600001CFB80210748FFF714FB80210548FFF7DA
:1026100012FB4FF400710348FFF70DFB70BD000083
:102620009802002000100140000C01402DE9FC5FE1
:1026300005460E4617469846DDF83090002001907A
:102640003348808846F60401884229D13048807991
:10265000012825D1AB4635462D480088C01B401EB9
:1026600086B247462A480088A0EB0B00401E1FFA9E
:1026700080F80020264988712A2048812B208881F3
:1026800043463A4631462846CDF80090FFF7CEFF44
:1026900001201F4988712B2048812A20888134E03D
:1026A000781B401C80B2019034462CE0214628461D
:1026B00004F086F804F03EFB4FF0000A1EE04FF4F1
:1026C00080711448FFF7B7FA4FF400711148FFF713
:1026D000B0FA49461048FFF7B0FA80210D48FFF7DD
:1026E000A8FA80210B48FFF7A6FA4FF400710948B9
:1026F000FFF7A1FA0AF101001FFA80FA019882455A
:10270000DDDB601C84B24445D0DDBDE8FC9F0000E9
:102710009802002000100140000C014008B5012182
:10272000192004F0DBFB0121F848FFF72DFA4FF4E4
:10273000F860ADF8000010208DF8030003208DF83C
:1027400002006946F248FFF794F94FF4F861F04847
:10275000FFF771FA4FF6FF70ADF800006946ED48DB
:10276000FFF787F94FF6FF71EA48FFF764FA322066
:1027700005F05AF80121002004F0E4FA322005F0B7
:1027800053F8002003F020FDE34988800846808844
:10279000FF280ADB084680884FF6FF71884204D084
:1027A000DD488088B0F5134F7ED1D32004F0A0FA25
:1027B00003F0C8FC03F0C6FC03F0C4FCD6498880D3
:1027C000084680884FF6FF7101EA0020D2498880D0
:1027D00003F0B8FCD04989880843CF49888008466F
:1027E000808849F2413188426CD0BF2004F080FAE1
:1027F00003F0A8FC03F0A6FC03F0A4FC03F0A2FC89
:10280000C5498880084680884FF6FF7101EA00209C
:10281000C149888003F096FCBF4989880843BE49B6
:1028200088800846808846F6040188424AD0D42031
:1028300004F05EFA03F086FC03F084FC03F082FCF3
:10284000B5498880084680884FF6FF7101EA00206C
:10285000B149888003F076FCAF4989880843AE49C6
:1028600088800846808845F2103188422AD04FF48B
:102870005A4004F03DFA03F065FC4FF45B4004F06D
:1028800037FA03F05FFCA4498880084680884FF639
:10289000FF7101EA0020A04988804FF45C4004F0F9
:1028A00027FA03F04FFC00E00CE09B4989880843BD
:1028B0009949888008468088B0F5004F02D145F2DA
:1028C000105088809448818894A0FDF709FD9248B3
:1028D000808849F2413188427ED1CF2004F008FA45
:1028E000002004F0E3F9C12004F0E0F9302004F006
:1028F000DDF9ED2004F0FCF9642004F0D7F90320A1
:1029000004F0D4F9122004F0D1F9812004F0CEF9BA
:10291000E82004F0EDF9852004F0C8F9102004F057
:10292000C5F97A2004F0C2F9CB2004F0E1F939208E
:1029300004F0BCF92C2004F0B9F9002004F0B6F939
:10294000342004F0B3F9022004F0B0F9F72004F0C9
:10295000CFF9202004F0AAF9EA2004F0C9F90020F8
:1029600004F0A4F9002004F0A1F9C02004F0C0F99B
:102970001B2004F09BF9C12004F0BAF9012004F0F7
:1029800095F9C52004F0B4F9302004F08FF9302017
:1029900004F08CF9C72004F0ABF9B72004F086F9F5
:1029A000362004F0A5F9482004F080F93A2004F01C
:1029B0009FF9552004F07AF9B12004F099F900202C
:1029C00004F074F91A2004F071F9B62004F090F9BB
:1029D0000A2004F06BF900E0A8E0A22004F066F9F8
:1029E000F22004F085F9002004F060F9262004F0BC
:1029F0007FF9012004F05AF9E02004F079F90F2062
:102A000004F054F92A2004F051F9282004F04EF97A
:102A1000082004F04BF90E2004F048F9082004F0D7
:102A200045F9542004F042F9A92004F03FF943206D
:102A300004F03CF90A2004F039F90F2004F036F9CB
:102A4000002004F033F9002004F030F9002004F0F5
:102A50002DF9002004F02AF9E12004F049F90020C2
:102A600004F024F9152004F021F9172004F01EF9D0
:102A7000072004F01BF9112004F018F9062004F0D7
:102A800015F92B2004F012F9562004F00FF93C2020
:102A900004F00CF9052004F009F9102004F006F9FF
:102AA0000F2004F003F93F2004F000F93F2004F068
:102AB000FDF80F2004F0FAF82B2004F019F900209B
:102AC00004F0F4F8002004F0F1F8012004F0EEF82E
:102AD0003F2004F0EBF82A2004F00AF9002004F06B
:102AE000E5F8002004F0E2F8002004F0DFF8EF2021
:102AF00004F0DCF8112004F0FBF8782004F094FED8
:102B0000292004F0F5F803F00DBB000000023000AE
:102B100000100140000C014098020020204C43446A
:102B20002049443A25780D0A00000000FE488088BC
:102B300046F6040188427CD1112004F0D9F8142013
:102B400004F072FED02004F0D3F8072004F0AEF8B1
:102B5000422004F0ABF81D2004F0A8F8D12004F0C6
:102B6000C7F8002004F0A2F81A2004F09FF809200A
:102B700004F09CF8D22004F0BBF8012004F096F891
:102B8000222004F093F8C02004F0B2F8102004F0E2
:102B90008DF83B2004F08AF8002004F087F802202A
:102BA00004F084F8112004F081F8C52004F0A0F8A6
:102BB000032004F07BF8C82004F09AF8002004F009
:102BC00075F8252004F072F8212004F06FF8052034
:102BD00004F06CF8002004F069F80A2004F066F8AC
:102BE000652004F063F8252004F060F8772004F0F5
:102BF0005DF8502004F05AF80F2004F057F8002038
:102C000004F054F8F82004F073F8012004F04EF8B2
:102C1000FE2004F06DF8002004F048F8022004F0D3
:102C200045F8202004F064F8362004F061F808200C
:102C300000E02CE004F03AF83A2004F059F855206E
:102C400004F034F82B2004F053F8002004F02EF8A0
:102C5000002004F02BF8012004F028F83F2004F0B5
:102C600025F82A2004F044F8002004F01FF8002082
:102C700004F01CF8012004F019F8DF2004F016F825
:102C8000782004F0D1FD292004F032F83BE7A64873
:102C9000808845F21031884240F07C87ED2004F0B6
:102CA00027F8012004F002F8FE2003F0FFFFEE20D9
:102CB00004F01EF8DE2003F0F9FF212003F0F6FFF8
:102CC000F12004F015F8012003F0F0FFDF2004F0FC
:102CD0000FF8102003F0EAFFC42004F009F88F2059
:102CE00003F0E4FFC62004F003F8002003F0DEFF49
:102CF000E22003F0DBFFE22003F0D8FFE22003F044
:102D0000D5FFBF2003F0F4FFAA2003F0CFFFB020CF
:102D100003F0EEFF0D2003F0C9FF002003F0C6FF13
:102D20000D2003F0C3FF002003F0C0FF112003F0CB
:102D3000BDFF002003F0BAFF192003F0B7FF002009
:102D400003F0B4FF212003F0B1FF002003F0AEFF39
:102D50002D2003F0ABFF002003F0A8FF3D2003F07F
:102D6000A5FF002003F0A2FF5D2003F09FFF0020DD
:102D700003F09CFF5D2003F099FF002003F096FF15
:102D8000B12003F0B5FF802003F090FF002003F096
:102D90008DFF8B2003F08AFF002003F087FF962031
:102DA00003F084FF002003F081FFB22003F0A0FFB6
:102DB000002003F07BFF002003F078FF022003F0E7
:102DC00075FF002003F072FF032003F06FFF002067
:102DD00003F06CFFB32003F08BFF002003F066FFCD
:102DE000002003F063FF002003F060FF002003F0E9
:102DF0005DFF002003F05AFF002003F057FF002082
:102E000003F054FF002003F051FF002003F04EFFB9
:102E1000002003F04BFF002003F048FF002003F0E8
:102E200045FF002003F042FF002003F03FFF002099
:102E300003F03CFF002003F039FF002003F036FFD1
:102E4000002003F033FF002003F030FF002003F0E8
:102E50002DFF002003F02AFF002003F027FF0020B1
:102E600003F024FF002003F021FFB42003F040FF13
:102E70008B2003F01BFF002003F018FF962003F0C7
:102E800015FF002003F012FFA12003F00FFF002028
:102E900003F00CFFB52003F02BFF022003F006FF28
:102EA000002003F003FF032003F000FF002003F0E5
:102EB000FDFE042003F0FAFE002003F0F7FEB6202A
:102EC00003F016FF002003F0F1FE002003F0EEFEF9
:102ED000B72003F00DFF002003F0E8FE002003F010
:102EE000E5FE3F2003F0E2FE002003F0DFFE5E205F
:102EF00003F0DCFE002003F0D9FE642003F0D6FED0
:102F0000002003F0D3FE8C2003F0D0FE002003F05D
:102F1000CDFEAC2003F0CAFE002003F0C7FEDC208B
:102F200003F0C4FE002001E09802002003F0BEFE82
:102F3000702003F0BBFE002003F0B8FE902003F0E9
:102F4000B5FE002003F0B2FEEB2003F0AFFE002040
:102F500003F0ACFEDC2003F0A9FE002003F0A6FE87
:102F6000B82003F0C5FE002003F0A0FE002003F00F
:102F70009DFE002003F09AFE002003F097FE002043
:102F800003F094FE002003F091FE002003F08EFE7B
:102F9000002003F08BFEBA2003F0AAFE242003F0E9
:102FA00085FE002003F082FE002003F07FFE00205B
:102FB00003F07CFEC12003F09BFE202003F076FE90
:102FC000002003F073FE542003F070FE002003F095
:102FD0006DFEFF2003F06AFE002003F067FEC220B2
:102FE00003F086FE0A2003F061FE002003F05EFE7F
:102FF000042003F05BFE002003F058FEC32003F022
:1030000077FE3C2003F052FE002003F04FFE3A20F2
:1030100003F04CFE002003F049FE392003F046FE89
:10302000002003F043FE372003F040FE002003F0B1
:103030003DFE3C2003F03AFE002003F037FE362030
:1030400003F034FE002003F031FE322003F02EFEA8
:10305000002003F02BFE2F2003F028FE002003F0B9
:1030600025FE2C2003F022FE002003F01FFE292065
:1030700003F01CFE002003F019FE262003F016FECC
:10308000002003F013FE242003F010FE002003F0C4
:103090000DFE242003F00AFE002003F007FE23208B
:1030A00003F004FE002003F001FE3C2003F0FEFDCF
:1030B000002003F0FBFD362003F0F8FD002003F0B4
:1030C000F5FD322003F0F2FD002003F0EFFD2F208C
:1030D00003F0ECFD002003F0E9FD2C2003F0E6FDF9
:1030E000002003F0E3FD292003F0E0FD002003F0C1
:1030F000DDFD262003F0DAFD002003F0D7FD2420BB
:1031000003F0D4FD002003F0D1FD242003F0CEFD18
:10311000002003F0CBFD232003F0C8FD002003F0C6
:10312000C5FDC42003F0E4FD622003F0BFFD0020D4
:1031300003F0BCFD052003F0B9FD002003F0B6FD4F
:10314000842003F0B3FD002003F0B0FDF02003F075
:10315000ADFD002003F0AAFD182003F0A7FD00201C
:1031600003F0A4FDA42003F0A1FD002003F09EFDC8
:10317000182003F09BFD002003F098FD502003F081
:1031800095FD002003F092FD0C2003F08FFD002040
:1031900003F08CFD172003F089FD002003F086FD6D
:1031A000952003F083FD002003F080FDF32003F061
:1031B0007DFD002003F07AFDE62003F077FD00207E
:1031C00003F074FDC52003F093FD322003F06EFD83
:1031D000002003F06BFD442003F068FD002003F0A5
:1031E00065FD652003F062FD002003F05FFD7620A1
:1031F00003F05CFD002003F059FD882003F056FD2C
:10320000002003F053FDC62003F072FD202003F0E0
:103210004DFD002003F04AFD172003F047FD00207C
:1032200003F044FD012003F041FD002003F03EFDCA
:10323000C72003F05DFD002003F038FD002003F0FF
:1032400035FD002003F032FD002003F02FFDC820E3
:1032500003F04EFD002003F029FD002003F026FDC1
:10326000002003F023FD002003F020FDC92003F01F
:103270003FFD002003F01AFD002003F017FD0020A1
:1032800003F014FD002003F011FD002003F00EFDFB
:10329000002003F00BFD002003F008FD002003F0E8
:1032A00005FD002003F002FD002003F0FFFC0020DC
:1032B00003F0FCFC002003F0F9FC002003F0F6FC16
:1032C000002003F0F3FC002003F0F0FC002003F0EA
:1032D000EDFCE02003F00CFD162003F0E7FC0020DD
:1032E00003F0E4FC1C2003F0E1FC002003F0DEFC12
:1032F000212003F0DBFC002003F0D8FC362003F093
:10330000D5FC002003F0D2FC462003F0CFFC0020C7
:1033100003F0CCFC522003F0C9FC002003F0C6FCF3
:10332000642003F0C3FC002003F0C0FC7A2003F00B
:10333000BDFC002003F0BAFC8B2003F0B7FC00209A
:1033400003F0B4FC992003F0B1FC002003F0AEFCC4
:10335000A82003F0ABFC002003F0A8FCB92003F088
:10336000A5FC002003F0A2FCC42003F09FFC002079
:1033700003F09CFCCA2003F099FC002003F096FCAB
:10338000D22003F093FC002003F090FCD92003F03E
:103390008DFC002003F08AFCE02003F087FC002075
:1033A00003F084FCF32003F081FC002003F07EFC9A
:1033B000E12003F09DFC162003F078FC002003F0D0
:1033C00075FC1C2003F072FC002003F06FFC22202F
:1033D00003F06CFC002003F069FC362003F066FC6F
:1033E000002003F063FC452003F060FC002003F0A4
:1033F0005DFC522003F05AFC002003F057FC6420CF
:1034000003F054FC002003F051FC7A2003F04EFC42
:10341000002003F04BFC8B2003F048FC002003F05D
:1034200045FC992003F042FC002003F03FFCA8205B
:1034300003F03CFC002003F039FCB92003F036FC1B
:10344000002003F033FCC42003F030FC002003F024
:103450002DFCCA2003F02AFC002003F027FCD22018
:1034600003F024FC002003F021FCD82003F01EFC14
:10347000002003F01BFCE02003F018FC002003F008
:1034800015FCF32003F012FC002003F00FFCE220F7
:1034900003F02EFC052003F009FC002003F006FCDD
:1034A0000B2003F003FC002003F000FC1B2003F0C2
:1034B000FDFB002003F0FAFB342003F0F7FB0020B3
:1034C00003F0F4FB442003F0F1FB002003F0EEFBDB
:1034D0004F2003F0EBFB002003F0E8FB612003F03A
:1034E000E5FB002003F0E2FB792003F0DFFB002086
:1034F00003F0DCFB882003F0D9FB002003F0D6FBAF
:10350000972003F0D3FB002003F0D0FBA62003F0AC
:10351000CDFB002003F0CAFBB72003F0C7FB00205F
:1035200003F0C4FBC22003F0C1FB002003F0BEFB8C
:10353000C72003F0BBFB002003F0B8FBD12003F051
:10354000B5FB002003F0B2FBD62003F0AFFB002058
:1035500003F0ACFBDD2003F0A9FB002003F0A6FB89
:10356000F32003F0A3FB002003F0A0FBE32003F013
:10357000BFFB052003F09AFB002003F097FB0A2015
:1035800003F094FB002003F091FB1C2003F08EFB62
:10359000002003F08BFB332003F088FB002003F0B6
:1035A00085FB442003F082FB002003F07FFB5020CA
:1035B00003F07CFB002003F079FB622003F076FB34
:1035C000002003F073FB782003F070FB002003F071
:1035D0006DFB882003F06AFB002003F067FB972057
:1035E00003F064FB002003F061FBA62003F05EFB08
:1035F000002003F05BFBB72003F058FB002003F032
:1036000055FBC22003F052FB002003F04FFBC72004
:1036100003F04CFB002003F049FBD12003F046FBF4
:10362000002003F043FBD52003F040FB002003F013
:103630003DFBDD2003F03AFB002003F037FBF320D5
:1036400003F034FB002003F031FBE42003F050FBD7
:10365000012003F02BFB002003F028FB012003F0E6
:1036600025FB002003F022FB022003F01FFB0020BB
:1036700003F01CFB2A2003F019FB002003F016FBCB
:103680003C2003F013FB002003F010FB4B2003F061
:103690000DFB002003F00AFB5D2003F007FB002078
:1036A00003F004FB742003F001FB002003F0FEFA9A
:1036B000842003F0FBFA002003F0F8FA932003F0D3
:1036C000F5FA002003F0F2FAA22003F0EFFA00204E
:1036D00003F0ECFAB32003F0E9FA002003F0E6FA75
:1036E000BE2003F0E3FA002003F0E0FAC42003F068
:1036F000DDFA002003F0DAFACD2003F0D7FA00203B
:1037000003F0D4FAD32003F0D1FA002003F0CEFA6C
:10371000DD2003F0CBFA002003F0C8FAF32003F019
:10372000C5FA002003F0C2FAE52003F0E1FA002018
:1037300003F0BCFA002003F0B9FA002003F0B6FA57
:10374000002003F0B3FA022003F0B0FA002003F0E7
:10375000ADFA292003F0AAFA002003F0A7FA3C20D2
:1037600003F0A4FA002003F0A1FA4B2003F09EFA24
:10377000002003F09BFA5D2003F098FA002003F08C
:1037800095FA742003F092FA002003F08FFA842057
:1037900003F08CFA002003F089FA932003F086FAF4
:1037A000002003F083FAA22003F080FA002003F047
:1037B0007DFAB32003F07AFA002003F077FABE20F6
:1037C00003F074FA002003F071FAC42003F06EFADB
:1037D000002003F06BFACD2003F068FA002003F01C
:1037E00065FAD32003F062FA002003F05FFADC20D0
:1037F00003F05CFA002003F059FAF32003F056FAC4
:10380000002003F053FAE62003F072FA112003F0CF
:103810004DFA002003F04AFA342003F047FA002062
:1038200003F044FA562003F041FA002003F03EFA78
:10383000762003F03BFA002003F038FA772003F0FB
:1038400035FA002003F032FA662003F02FFA002048
:1038500003F02CFA882003F029FA002003F026FA5E
:10386000992003F023FA002003F020FABB2003F094
:103870001DFA002003F01AFA992003F017FA00202D
:1038800003F014FA662003F011FA002003F00EFA98
:10389000552003F00BFA002003F008FA552003F03E
:1038A00005FA002003F002FA452003F0FFF900209A
:1038B00003F0FCF9432003F0F9F9002003F0F6F9D6
:1038C000442003F0F3F9002003F0F0F9E72003F0BF
:1038D0000FFA322003F0EAF9002003F0E7F955204F
:1038E00003F0E4F9002003F0E1F9762003F0DEF9BB
:1038F000002003F0DBF9662003F0D8F9002003F084
:10390000D5F9672003F0D2F9002003F0CFF9672042
:1039100003F0CCF9002003F0C9F9872003F0C6F9C1
:10392000002003F0C3F9992003F0C0F9002003F050
:10393000BDF9BB2003F0BAF9002003F0B7F99920D4
:1039400003F0B4F9002003F0B1F9772003F0AEF9E9
:10395000002003F0ABF9442003F0A8F9002003F0A5
:10396000A5F9562003F0A2F9002003F09FF92320C7
:1039700003F09CF9002003F099F9332003F096F945
:10398000002003F093F9452003F090F9002003F0A4
:103990008DF9E82003F0ACF9002003F087F900204E
:1039A00003F084F9992003F081F9002003F07EF9F7
:1039B000872003F07BF9002003F078F9882003F0DA
:1039C00075F9002003F072F9772003F06FF90020F9
:1039D00003F06CF9662003F069F9002003F066F942
:1039E000882003F063F9002003F060F9AA2003F0B7
:1039F0005DF9002003F05AF9BB2003F057F90020CD
:103A000003F054F9992003F051F9002003F04EF926
:103A1000662003F04BF9002003F048F9552003F02D
:103A200045F9002003F042F9552003F03FF900204A
:103A300003F03CF9442003F039F9002003F036F993
:103A4000442003F033F9002003F030F9552003F04F
:103A50002DF9002003F02AF9E92003F049F9AA2002
:103A600003F024F9002003F021F9002003F01EF9EF
:103A7000002003F01BF9002003F03AF9AA2003F01C
:103A800015F9CF2003F034F9002003F00FF90020DE
:103A900003F00CF9002003F009F9002003F006F907
:103AA000002003F003F9002003F000F9002003F0E8
:103AB000FDF8002003F0FAF8002003F0F7F80020EA
:103AC00003F0F4F8002003F0F1F8002003F0EEF822
:103AD000002003F0EBF8002003F0E8F8002003F0EA
:103AE000E5F8002003F0E2F8002003F0DFF8F02012
:103AF00003F0FEF8002003F0D9F8502003F0D6F8C8
:103B0000002003F0D3F8002003F0D0F8002003F0E9
:103B1000CDF8F32003F0ECF8002003F0C7F8F9200B
:103B200003F0E6F8062003F0C1F8102003F0BEF819
:103B3000292003F0BBF8002003F0B8F83A2003F086
:103B4000D7F8552003F0B2F8112003F0D1F8642023
:103B500003F06AFE292003F0CBF8352003F0C8F803
:103B6000002003F0A3F8512003F0C2F8FF2003F077
:103B70009DF8532003F0BCF82C2003F097F8552053
:103B800003F0B6F8822003F091F82C2003F0B0F88F
:103B900002F0C8BAFE48808845F2105188427DD1B3
:103BA00055214FF4704003F0CDF8AA214FF20100E7
:103BB00003F0C8F852214FF2020003F0C3F80821C5
:103BC0004FF2030003F0BEF801214FF2040003F0AE
:103BD000B9F80D214FF4304003F0B4F80D214BF249
:103BE000010003F0AFF80D214BF2020003F0AAF838
:103BF00034214FF4364003F0A5F834214BF2016034
:103C000003F0A0F834214BF2026003F09BF80D2181
:103C10004FF4314003F096F80D214BF2011003F000
:103C200091F80D214BF2021003F08CF834214FF47F
:103C3000374003F087F834214BF2017003F082F82B
:103C400034214BF2027003F07DF800214FF4324032
:103C500003F078F800214BF2012003F073F8002103
:103C60004BF2022003F06EF824214FF4384003F0A9
:103C700069F824214BF6010003F064F824214BF687
:103C8000020003F05FF801214FF43F4003F05AF8BF
:103C90000F214FF4334003F055F800E0FDE30F210E
:103CA0004BF2013003F04EF80F214BF2023003F0DB
:103CB00049F834214FF4394003F044F834214BF6ED
:103CC000011003F03FF834214BF6021003F03AF8EC
:103CD00008214FF4354003F035F808214BF201502C
:103CE00003F030F808214BF2025003F02BF80321C7
:103CF0004FF4424003F026F824214FF43A4003F0F9
:103D000021F824214BF6012003F01CF824214BF666
:103D1000022003F017F800214FF43C4003F012F8A2
:103D200078214BF6014003F00DF800214BF60240DC
:103D300003F008F800214FF43D4003F003F8782128
:103D40004BF6015002F0FEFF00214BF6025002F04C
:103D5000F9FF00214FF43E4002F0F4FF64214BF6DE
:103D6000016002F0EFFF00214FF4514002F0EAFF42
:103D700033214DF2011002F0E5FF00214DF2021057
:103D800002F0E0FF34214DF2031002F0DBFF0021CE
:103D90004DF2041002F0D6FF3A214DF2051002F068
:103DA000D1FF00214DF2061002F0CCFF4A214DF266
:103DB000071002F0C7FF00214DF2081002F0C2FF09
:103DC0005C214DF2091002F0BDFF00214DF20A10F6
:103DD00002F0B8FF81214DF20B1002F0B3FF002179
:103DE0004DF20C1002F0AEFFA6214DF20D1002F0C4
:103DF000A9FF00214DF20E1002F0A4FFE5214DF2C3
:103E00000F1002F09FFF01214DF2101002F09AFFF7
:103E100013214DF2111002F095FF01214DF2121005
:103E200002F090FF54214DF2131002F08BFF01219C
:103E30004DF2141002F086FF82214DF2151002F0AF
:103E400081FF01214DF2161002F07CFFCA214DF2D4
:103E5000171002F077FF02214DF2181002F072FFE6
:103E600000214DF2191002F06DFF02214DF21A10DF
:103E700002F068FF01214DF21B1002F063FF0221E6
:103E80004DF21C1002F05EFF34214DF21D1002F0C5
:103E900059FF02214DF21E1002F054FF67214DF22E
:103EA0001F1002F04FFF02214DF2201002F04AFFD6
:103EB00084214DF2211002F045FF02214DF2221023
:103EC00002F040FFA4214DF2231002F03BFF02213B
:103ED0004DF2241002F036FFB7214DF2251002F00A
:103EE00031FF02214DF2261002F02CFFCF214DF2BE
:103EF000271002F027FF02214DF2281002F022FFC6
:103F0000DE214DF2291002F01DFF02214DF22A1090
:103F100002F018FFF2214DF22B1002F013FF0221E4
:103F20004DF22C1002F00EFFFE214DF22D1002F08A
:103F300009FF03214DF22E1002F004FF10214DF273
:103F40002F1002F0FFFE03214DF2301002F0FAFEB6
:103F500033214DF2311002F0F5FE03214DF2321003
:103F600002F0F0FE6D214DF2331002F0EBFE002165
:103F70004FF4524002F0E6FE33214DF2012002F0F0
:103F8000E1FE00214DF2022002F0DCFE342101E0CE
:103F9000980200204DF2032002F0D4FE00214DF2E1
:103FA000042002F0CFFE3A214DF2052002F0CAFEB5
:103FB00000214DF2062002F0C5FE4A214DF20720F5
:103FC00002F0C0FE00214DF2082002F0BBFE5C2191
:103FD0004DF2092002F0B6FE00214DF20A2002F057
:103FE000B1FE81214DF20B2002F0ACFE00214DF21A
:103FF0000C2002F0A7FEA6214DF20D2002F0A2FE39
:1040000000214DF20E2002F09DFEE5214DF20F2021
:1040100002F098FE01214DF2102002F093FE1321D0
:104020004DF2112002F08EFE01214DF2122002F01D
:1040300089FE54214DF2132002F084FE01214DF23D
:10404000142002F07FFE82214DF2152002F07AFE4C
:1040500001214DF2162002F075FECA214DF2172003
:1040600002F070FE02214DF2182002F06BFE0021DA
:104070004DF2192002F066FE02214DF21A2002F0E4
:1040800061FE01214DF21B2002F05CFE02214DF287
:104090001C2002F057FE34214DF21D2002F052FE8A
:1040A00002214DF21E2002F04DFE67214DF21F202D
:1040B00002F048FE02214DF2202002F043FE84214E
:1040C0004DF2212002F03EFE02214DF2222002F0AC
:1040D00039FEA4214DF2232002F034FE02214DF2DC
:1040E000242002F02FFEB7214DF2252002F02AFEF7
:1040F00002214DF2262002F025FECF214DF227208D
:1041000002F020FE02214DF2282002F01BFEDE21EB
:104110004DF2292002F016FE02214DF22A2002F073
:1041200011FEF2214DF22B2002F00CFE02214DF285
:104130002C2002F007FEFE214DF22D2002F002FE9F
:1041400003214DF22E2002F0FDFD10214DF22F2013
:1041500002F0F8FD03214DF2302002F0F3FD33218F
:104160004DF2312002F0EEFD03214DF2322002F03B
:10417000E9FD6D214DF2332002F0E4FD00214FF402
:10418000534002F0DFFD33214DF2013002F0DAFD41
:1041900000214DF2023002F0D5FD34214DF2033002
:1041A00002F0D0FD00214DF2043002F0CBFD3A21A7
:1041B0004DF2053002F0C6FD00214DF2063002F04E
:1041C000C1FD4A214DF2073002F0BCFD00214DF245
:1041D000083002F0B7FD5C214DF2093002F0B2FD6B
:1041E00000214DF20A3002F0ADFD81214DF20B307D
:1041F00002F0A8FD00214DF20C3002F0A3FDA62133
:104200004DF20D3002F09EFD00214DF20E3002F015
:1042100099FDE5214DF20F3002F094FD01214DF2A0
:10422000103002F08FFD13214DF2113002F08AFDA3
:1042300001214DF2123002F085FD54214DF2133070
:1042400002F080FD01214DF2143002F07BFD82214D
:104250004DF2153002F076FD01214DF2163002F0DC
:1042600071FDCA214DF2173002F06CFD02214DF2B2
:10427000183002F067FD00214DF2193002F062FDA6
:1042800002214DF21A3002F05DFD01214DF21B308A
:1042900002F058FD02214DF21C3002F053FD342192
:1042A0004DF21D3002F04EFD02214DF21E3002F0A3
:1042B00049FD67214DF21F3002F044FD02214DF20D
:1042C000203002F03FFD84214DF2213002F03AFD12
:1042D00002214DF2223002F035FDA4214DF22330AF
:1042E00002F030FD02214DF2243002F02BFDB72107
:1042F0004DF2253002F026FD02214DF2263002F06B
:1043000021FDCF214DF2273002F01CFD02214DF29C
:10431000283002F017FDDE214DF2293002F012FDA7
:1043200002214DF22A3002F00DFDF2214DF22B3028
:1043300002F008FD02214DF22C3002F003FDFE21B7
:104340004DF22D3002F0FEFC03214DF22E3002F032
:10435000F9FC10214DF22F3002F0F4FC03214DF254
:10436000303002F0EFFC33214DF2313002F0EAFC44
:1043700003214DF2323002F0E5FC6D214DF2333075
:1043800002F0E0FC00214FF4544002F0DBFC33214A
:104390004DF2014002F0D6FC00214DF2024002F045
:1043A000D1FC34214DF2034002F0CCFC00214DF24F
:1043B000044002F0C7FC3A214DF2054002F0C2FC75
:1043C00000214DF2064002F0BDFC4A214DF20740AB
:1043D00002F0B8FC00214DF2084002F0B3FC5C2171
:1043E0004DF2094002F0AEFC00214DF20A4002F00D
:1043F000A9FC81214DF20B4002F0A4FC00214DF2FA
:104400000C4002F09FFCA6214DF20D4002F09AFCF8
:1044100000214DF20E4002F095FCE5214DF20F40D7
:1044200002F090FC01214DF2104002F08BFC1321B0
:104430004DF2114002F086FC01214DF2124002F0D3
:1044400081FC54214DF2134002F07CFC01214DF21D
:10445000144002F077FC82214DF2154002F072FC0C
:1044600001214DF2164002F06DFCCA214DF21740B9
:1044700002F068FC02214DF2184002F063FC0021BA
:104480004DF2194002F05EFC02214DF21A4002F09A
:1044900059FC01214DF21B4000E006E302F052FC02
:1044A00002214DF21C4002F04DFC34214DF21D4022
:1044B00002F048FC02214DF21E4002F043FC67214D
:1044C0004DF21F4002F03EFC02214DF2204002F06E
:1044D00039FC84214DF2214002F034FC02214DF2DE
:1044E000224002F02FFCA4214DF2234002F02AFCCE
:1044F00002214DF2244002F025FCB7214DF2254067
:1045000002F020FC02214DF2264002F01BFCCF21DC
:104510004DF2274002F016FC02214DF2284002F035
:1045200011FCDE214DF2294002F00CFC02214DF27B
:104530002A4002F007FCF2214DF22B4002F002FC6F
:1045400002214DF22C4002F0FDFBFE214DF22D40E8
:1045500002F0F8FB03214DF22E4002F0F3FB102194
:104560004DF22F4002F0EEFB03214DF2304002F0FD
:10457000E9FB33214DF2314002F0E4FB03214DF21F
:10458000324002F0DFFB6D214DF2334002F0DAFBE6
:1045900000214FF4554002F0D5FB33214DF201507C
:1045A00002F0D0FB00214DF2025002F0CBFB34218F
:1045B0004DF2035002F0C6FB00214DF2045002F010
:1045C000C1FB3A214DF2055002F0BCFB00214DF237
:1045D000065002F0B7FB4A214DF2075002F0B2FB41
:1045E00000214DF2085002F0ADFB5C214DF2095064
:1045F00002F0A8FB00214DF20A5002F0A3FB81213A
:104600004DF20B5002F09EFB00214DF20C5002F0D7
:1046100099FBA6214DF20D5002F094FB00214DF2C2
:104620000E5002F08FFBE5214DF20F5002F08AFB95
:1046300001214DF2105002F085FB13214DF2115073
:1046400002F080FB01214DF2125002F07BFB54215D
:104650004DF2135002F076FB01214DF2145002F09E
:1046600071FB82214DF2155002F06CFB01214DF2DD
:10467000165002F067FBCA214DF2175002F062FBA0
:1046800002214DF2185002F05DFB00214DF219504D
:1046900002F058FB02214DF21A5002F053FB0121A7
:1046A0004DF21B5002F04EFB02214DF21C5002F065
:1046B00049FB34214DF21D5002F044FB02214DF222
:1046C0001E5002F03FFB67214DF21F5002F03AFBF3
:1046D00002214DF2205002F035FB84214DF2215091
:1046E00002F030FB02214DF2225002F02BFBA421FC
:1046F0004DF2235002F026FB02214DF2245002F02D
:1047000021FBB7214DF2255002F01CFB02214DF296
:10471000265002F017FBCF214DF2275002F012FB7A
:1047200002214DF2285002F00DFBDE214DF22950FE
:1047300002F008FB02214DF22A5002F003FBF221A5
:104740004DF22B5002F0FEFA02214DF22C5002F0F5
:10475000F9FAFE214DF22D5002F0F4FA03214DF248
:104760002E5002F0EFFA10214DF22F5002F0EAFA2B
:1047700003214DF2305002F0E5FA33214DF2315071
:1047800002F0E0FA03214DF2325002F0DBFA6D2123
:104790004DF2335002F0D6FA00214FF4564002F0A9
:1047A000D1FA33214DF2016002F0CCFA00214DF232
:1047B000026002F0C7FA34214DF2036002F0C2FA3F
:1047C00000214DF2046002F0BDFA3A214DF205607D
:1047D00002F0B8FA00214DF2066002F0B3FA4A2165
:1047E0004DF2076002F0AEFA00214DF2086002F0CF
:1047F000A9FA5C214DF2096002F0A4FA00214DF201
:104800000A6002F09FFA81214DF20B6002F09AFAE1
:1048100000214DF20C6002F095FAA6214DF20D60D8
:1048200002F090FA00214DF20E6002F08BFAE521C1
:104830004DF20F6002F086FA01214DF2106002F095
:1048400081FA13214DF2116002F07CFA01214DF240
:10485000126002F077FA54214DF2136002F072FAFE
:1048600001214DF2146002F06DFA82214DF21560C3
:1048700002F068FA01214DF2166002F063FACA21D3
:104880004DF2176002F05EFA02214DF2186002F05C
:1048900059FA00214DF2196002F054FA02214DF24A
:1048A0001A6002F04FFA01214DF21B6002F04AFA41
:1048B00002214DF21C6002F045FA34214DF21D60D8
:1048C00002F040FA02214DF21E6002F03BFA67212D
:1048D0004DF21F6002F036FA02214DF2206002F024
:1048E00031FA84214DF2216002F02CFA02214DF2BE
:1048F000226002F027FAA4214DF2236002F022FA8E
:1049000002214DF2246002F01DFAB7214DF225601C
:1049100002F018FA02214DF2266002F013FACF21BC
:104920004DF2276002F00EFA02214DF2286002F0EB
:1049300009FADE214DF2296002F004FA02214DF25B
:104940002A6002F0FFF9F2214DF22B6002F0FAF931
:1049500002214DF22C6002F0F5F9FE214DF22D609E
:1049600002F0F0F903214DF22E6002F0EBF9102174
:104970004DF22F6002F0E6F903214DF2306002F0B3
:10498000E1F933214DF2316002F0DCF903214DF2FF
:10499000326002F0D7F96D214DF2336002F0D2F9A6
:1049A00055214FF4704002F0CDF9AA214FF20100D9
:1049B00002F0C8F952214FF2020002F0C3F90821B7
:1049C0004FF2030002F0BEF900214FF2040002F0A2
:1049D000B9F9CC214FF4314002F0B4F900214BF287
:1049E000011002F0AFF905214FF4364002F0AAF9A8
:1049F00070214FF4374002F0A5F970214BF201709D
:104A000002F0A0F901214FF4384002F09BF9032194
:104A10004BF6010002F096F903214BF6020002F07A
:104A200091F903214BF6030002F08CF902214FF4B7
:104A30003C4002F087F900214BF6014002F082F978
:104A400000214BF6024002F07DF9D0214FF449409D
:104A500002F078F902214CF6011002F073F95021AE
:104A60004CF6021002F06EF950214CF6031002F0E1
:104A700069F950214CF6041002F064F900214FF45A
:104A8000545002F05FF955214FF4685002F05AF982
:104A90004FF4885002F02CF9782002F0EBFE4FF42E
:104AA000245002F025F901F03DBBFE48808849F210
:104AB000253188427ED147F6F001E52002F042F927
:104AC0004FF48071012002F03DF94FF4E0610220C3
:104AD00002F038F941F23001032002F033F90021ED
:104AE000042002F02FF940F20221082002F02AF9F6
:104AF0000021092002F026F900210A2002F022F903
:104B000000210C2002F01EF900210D2002F01AF9FC
:104B100000210F2002F016F90021102002F012F9F6
:104B20000721112002F00EF90021122002F00AF9EB
:104B30000021132002F006F90021072002F002F9FB
:104B400041F29061102002F0FDF840F2272111207F
:104B500002F0F8F89D21122002F0F4F84FF4C85149
:104B6000132002F0EFF82521292002F0EBF80D21A7
:104B70002B2002F0E7F80721302002F0E3F840F2A2
:104B80000331312002F0DEF80321322002F0DAF89E
:104B900040F20621352002F0D5F80821362002F037
:104BA000D1F840F20641372002F0CCF84FF44171C1
:104BB000382000E057E002F0C5F80721392002F064
:104BC000C1F840F202613C2002F0BCF808213D200F
:104BD00002F0B8F80021502002F0B4F8EF21512083
:104BE00002F0B0F80021522002F0ACF840F23F1180
:104BF000532002F0A7F84FF42741602002F0A2F8FA
:104C00000121612002F09EF800216A2002F09AF84A
:104C10000021802002F096F80021812002F092F815
:104C20000021822002F08EF80021832002F08AF811
:104C30000021842002F086F80021852002F082F80D
:104C40001021902002F07EF84FF4C061922002F013
:104C500079F840F23311072002F074F82221002085
:104C600002F070F81FE78F48808849F228318842A7
:104C70007ED141F28F01EC2002F064F841F2342140
:104C8000EF2002F05FF84FF48071012002F05AF833
:104C90004FF4E061022002F055F841F230010320A8
:104CA00002F050F80021042002F04CF840F20221FA
:104CB000082002F047F80021092002F043F8002103
:104CC0000A2002F03FF801210C2002F03BF80021FD
:104CD0000D2002F037F800210F2002F033F80021F8
:104CE000102002F02FF80721112002F02BF80021EC
:104CF000122002F027F80021132002F023F80121EE
:104D0000072002F01FF8322002F08EFD41F29041A0
:104D1000102002F017F840F22721112002F012F8BB
:104D2000322002F081FD8A21122002F00BF832209D
:104D300002F07AFD4FF4D051132002F003F806215F
:104D4000292001F0FFFF0D212B2001F0FBFF322075
:104D500002F06AFD0021202001F0F4FF0021212053
:104D600001F0F0FF322002F05FFD0021302000E072
:104D700074E001F0E7FF40F20461312001F0E2FF4E
:104D800040F20531322001F0DDFF0021352001F035
:104D9000D9FF40F60941362001F0D4FF4FF40171EC
:104DA000372001F0CFFF40F20131382001F0CAFF77
:104DB00040F20771392001F0C5FF00213C2001F0CD
:104DC000C1FF40F60A213D2001F0BCFF322002F075
:104DD0002BFD0021502001F0B5FFEF21512001F003
:104DE000B1FF0021522001F0ADFF40F23F115320EE
:104DF00001F0A8FF4FF42741602001F0A3FF01213B
:104E0000612001F09FFF00216A2001F09BFF00213B
:104E1000802001F097FF0021812001F093FF002105
:104E2000822001F08FFF0021832001F08BFF002101
:104E3000842001F087FF0021852001F083FF1021ED
:104E4000902001F07FFF4FF4C061922001F07AFFC3
:104E500040F23311072001F075FF24E611488088E5
:104E600049F2253188427CD147F6F001E52001F076
:104E700069FF4FF48071012001F064FF4FF4E0619D
:104E8000022001F05FFF41F23001032001F05AFFE0
:104E90000021042001F056FF40F20221082001F019
:104EA00051FF01E0980200200021092001F04AFF93
:104EB00000210A2001F046FF00210C2001F042FFF2
:104EC00000210D2001F03EFF00210F2001F03AFFEC
:104ED0000021102001F036FF0721112001F032FFE0
:104EE0000021122001F02EFF0021132001F02AFFE3
:104EF0000021072001F026FF41F29061102001F00F
:104F000021FF40F22721112001F01CFF9D211220DA
:104F100001F018FF4FF4C851132001F013FF2521B1
:104F2000292001F00FFF0D212B2001F00BFF07219D
:104F3000302001F007FF40F20331312001F002FF81
:104F40000321322001F0FEFE40F20621352001F05F
:104F5000F9FE0821362001F0F5FE40F20641372027
:104F600000E05CE001F0EEFE4FF44171382001F00A
:104F7000E9FE0721392001F0E5FE40F202613C2004
:104F800001F0E0FE08213D2001F0DCFE0021502070
:104F900001F0D8FEEF21512001F0D4FE0021522073
:104FA00001F0D0FE40F23F11532001F0CBFE4FF450
:104FB0002741602001F0C6FE0121612001F0C2FE00
:104FC00000216A2001F0BEFE0021802001F0BAFE1F
:104FD0000021812001F0B6FE0021822001F0B2FE06
:104FE0000021832001F0AEFE0021842001F0AAFE02
:104FF0000021852001F0A6FE1021902001F0A2FEE4
:105000004FF4C061922001F09DFE40F23311072061
:1050100001F098FE2221002001F094FE43E5FE48B5
:10502000808849F2283188427ED141F28F01EC20FC
:1050300001F088FE41F23421EF2001F083FE4FF4AD
:105040008071012001F07EFE4FF4E061022001F04A
:1050500079FE41F23001032001F074FE00210420AA
:1050600001F070FE40F20221082001F06BFE0021E9
:10507000092001F067FE00210A2001F063FE0121F2
:105080000C2001F05FFE00210D2001F05BFE0021ED
:105090000F2001F057FE0021102001F053FE0721E0
:1050A000112001F04FFE0021122001F04BFE0021E3
:1050B000132001F047FE0121072001F043FE3220BA
:1050C00002F0B2FB41F29041102001F03BFE40F2B1
:1050D0002721112001F036FE322002F0A5FB8A21A3
:1050E000122001F02FFE322002F09EFB4FF4D0512F
:1050F000132001F027FE0621292001F023FE0D21B7
:105100002B2001F01FFE322002F08EFB0021202018
:1051100001F018FE0021212001F014FE322002F0DF
:1051200083FB0021302000E074E001F00BFE40F230
:105130000461312001F006FE40F20531322001F019
:1051400001FE0021352001F0FDFD40F60941362029
:1051500001F0F8FD4FF40171372001F0F3FD40F24A
:105160000131382001F0EEFD40F20771392001F0E5
:10517000E9FD00213C2001F0E5FD40F60A213D203B
:1051800001F0E0FD322002F04FFB0021502001F041
:10519000D9FDEF21512001F0D5FD0021522001F071
:1051A000D1FD40F23F11532001F0CCFD4FF42741D7
:1051B000602001F0C7FD0121612001F0C3FD002145
:1051C0006A2001F0BFFD0021802001F0BBFD00211D
:1051D000812001F0B7FD0021822001F0B3FD002104
:1051E000832001F0AFFD0021842001F0ABFD002100
:1051F000852001F0A7FD1021902001F0A3FD4FF4C0
:10520000C061922001F09EFD40F23311072001F0B1
:1052100099FD48E48048808849F2203188427DD158
:105220000021084601F08EFD4FF48071012001F04D
:1052300089FD4FF4E061022001F084FD41F230016C
:10524000032001F07FFD0021042001F07BFD40F2EE
:105250000221082001F076FD0021092001F072FDF5
:1052600000210A2001F06EFD01210C2001F06AFDF1
:1052700000210D2001F066FD00210F2001F062FDEC
:10528000322002F0D1FA40F20111072001F05AFD5C
:10529000322002F0C9FA4FF48651102001F052FD7D
:1052A0000721112001F04EFD4FF48871122001F00A
:1052B00049FD4FF43061132001F044FD0021292005
:1052C00001F040FD44F210012B2001F03BFD0021D4
:1052D000502001F037FDEF21512001F033FD002176
:1052E000522001F02FFD40F23F11532001F02AFD22
:1052F0004FF41C51602001F025FD0121612001F0D7
:1053000021FD00216A2001F01DFD0021802001F017
:1053100019FD0021812001F015FD00E02EE00021A3
:10532000822001F00FFD0021832001F00BFD002100
:10533000842001F007FD0021852001F003FD1021EC
:10534000902001F0FFFC0021922001F0FBFC0121E4
:10535000932001F0F7FC4FF48871952001F0F2FCE6
:105360000021972001F0EEFC0021982001F0EAFCDA
:1053700040F27311072001F0E5FC73E426488088B1
:1053800049F2313188427DD141F21401E72001F028
:10539000D9FC4FF48071012001F0D4FC4FF400716E
:1053A000022001F0CFFC41F23801032001F0CAFCD9
:1053B00040F20221082001F0C5FC0021092001F083
:1053C000C1FC00210A2001F0BDFC00210C2001F0ED
:1053D000B9FC00210D2001F0B5FC00210F2001F0E7
:1053E000B1FC0021102001F0ADFC0721112001F0DB
:1053F000A9FC0021122001F0A5FC0021132001F0DE
:10540000A1FCC82002F010FA41F29061102001F0D6
:1054100099FC40F2272101E098020020112001F0C0
:1054200091FC322002F000FA0C21122001F08AFCDB
:10543000322002F0F9F94FF40061132001F082FCF0
:105440001121292001F07EFC0B212B2001F07AFC98
:10545000322002F0E9F90021202001F073FC40F233
:105460003F11212001F06EFC0021302001F06AFC88
:105470004FF48371312001F065FC0021322001F0EE
:1054800061FC00E067E04FF40171352001F05AFC47
:1054900041F20A61362001F055FC40F207713720D5
:1054A00001F050FC4FF48371382001F04BFC40F2C6
:1054B0000771392001F046FC40F202413C2001F026
:1054C00041FC40F60F413D2001F03CFC0021502002
:1054D00001F038FCEF21512001F034FC0021522072
:1054E00001F030FC40F23F11532001F02BFC4FF44F
:1054F0001C51602001F026FC0121612001F022FCFA
:1055000000216A2001F01EFC0021802001F01AFC1D
:105510000021812001F016FC0021822001F012FC04
:105520000021832001F00EFC0021842001F00AFC00
:105530000021852001F006FC1021902001F002FCE2
:105540004FF4C061922001F0FDFB40F233110720BF
:1055500001F0F8FB81E4FE48808845F2084188426A
:105560007ED14FF48071012001F0ECFB4FF4E0613B
:10557000022001F0E7FB41F23001032001F0E2FBE1
:105580000021042001F0DEFB40F20721082001F099
:10559000D9FB0021092001F0D5FB00210A2001F0F0
:1055A000D1FB00210C2001F0CDFB00210D2001F0EA
:1055B000C9FB00210F2001F0C5FB142002F034F9D3
:1055C00041F2B061102001F0BDFB0121112001F07A
:1055D000B9FB0121172001F0B5FB4FF49C7112209B
:1055E00001F0B0FB4FF40061132001F0ABFB092187
:1055F000292001F0A7FB09212A2001F0A3FB0021AB
:10560000A42001F09FFB0021502001F09BFBEF2123
:10561000512001F097FB0021522001F093FB40F252
:105620003F11532001F08EFB4FF41C51602001F01C
:1056300089FB0121612001F085FB00216A2001F036
:1056400081FB0021802001F07DFB0021812001F001
:1056500079FB0021822001F075FB0021832000E00E
:1056600023E001F06FFB0021842001F06BFB00219F
:10567000852001F067FB1321902001F063FB0021DE
:10568000922001F05FFB0321932001F05BFB4FF4BC
:105690008871952001F056FB40F27311072001F04C
:1056A00051FB322002F0C0F8B8E4A948808841F2EA
:1056B000055188427ED10021072001F043FB3220B2
:1056C00002F0B2F84FF48E71122001F03BFB012181
:1056D000A42001F037FB0F21082001F033FB082143
:1056E0000A2001F02FFB08210D2001F02BFB40F2D6
:1056F0000771302001F026FB0721312001F022FB49
:1057000040F20361322001F01DFB4FF4E0613320D1
:1057100001F018FB40F20221342001F013FB0221BA
:10572000352001F00FFB41F60F71362001F00AFB26
:1057300040F20771372001F005FB0021382001F00D
:1057400001FB0021392001F0FDFA40F207713A20F7
:1057500001F0F8FA00213B2001F0F4FA07213C2087
:1057600001F0F0FA00213D2001F0ECFA322002F0C5
:105770005BF80121072001F0E5FA0121172001F073
:10578000E1FA322002F050F84FF4BD51102001F040
:10579000D9FA40F21721112001F0D4FA4FF48F7199
:1057A000122001F0CFFA4FF47061132001F0CAFA11
:1057B000002100E094E02A2001F0C4FA0A21292007
:1057C00001F0C0FA4FF49F71122001F0BBFA0021E2
:1057D000502001F0B7FAEF21512001F0B3FA002177
:1057E000522001F0AFFA40F23F11532001F0AAFA23
:1057F0004FF41C51602001F0A5FA0121612001F055
:10580000A1FA00216A2001F09DFA0021802001F018
:1058100099FA0021812001F095FA0021822001F0FF
:1058200091FA0021832001F08DFA0021842001F0FB
:1058300089FA0021852001F085FA1321902001F0DA
:1058400081FA4FF44071922001F07CFA05219320F7
:1058500001F078FA0021952001F074FA00219720D8
:1058600001F070FA0021982001F06CFA4FF4807179
:10587000012001F067FA4FF4E061022001F062FAC2
:1058800041F23801032001F05DFA0021042001F00B
:1058900059FA00210C2001F055FA00210F2001F0E7
:1058A00051FA0021202001F04DFA0021212001F0C1
:1058B00049FA2121072001F045FA142001F0B4FF34
:1058C0006121072001F03EFA142001F0ADFF40F203
:1058D0007311072001F036FA142001F0A5FF98E4B7
:1058E0001B4880884BF2055188427DD10021084633
:1058F00001F028FA0021084601F024FA00210846A8
:1059000001F020FA0021084601F01CFA0121A42030
:1059100001F018FA142001F087FF4FF41C516020A9
:1059200001F010FA40F20221082001F00BFA4FF4C6
:105930000571302001F006FA43F21571312001F0B3
:1059400001FA40F20461322001F0FCF902E00000AB
:105950009802002040F61661332001F0F3F942F27C
:105960001121342001F0EEF94FF4A851352001F057
:10597000E9F948F20751362001F0E4F941F2074114
:10598000372001F0DFF941F20341382001F0DAF964
:105990002021392001F0D6F91A21902001F0D2F906
:1059A0000021102001F0CEF90721112001F0CAF9E1
:1059B0000021122001F0C6F90021132001F0C2F9E4
:1059C000142001F031FF4FF4E661102001F0BAF924
:1059D00040F23711112001F0B5F9142001F024FF35
:1059E0004FF4DC71122000E088E001F0ABF91420E4
:1059F00001F01AFF4FF47061132001F0A3F9802128
:105A00002A2001F09FF94821292001F09BF9142058
:105A100001F00AFF4FF48071012001F093F94FF477
:105A2000E061022001F08EF941F23801032001F01B
:105A300089F940F20221082001F084F900210A20AE
:105A400001F080F900210C2001F07CF900210D20EB
:105A500001F078F930210E2001F074F90021502076
:105A600001F070F9EF21512001F06CF90021522072
:105A700001F068F940F23F11532001F063F94FF44F
:105A80001C51602001F05EF90121612001F05AF9FA
:105A900000216A2001F056F91121902001F052F9FD
:105AA0004FF4C061922001F04DF940F20241932081
:105AB00001F048F90221942001F044F9142001F08A
:105AC000B3FE0121072001F03DF9142001F0ACFEE6
:105AD0006121072001F036F940F27311072001F02F
